:020000040000FA
:06000000020C330202387D
:03002B00020A2D99
:0300330002025A6C
:0300530002016D3A
:03007B00020799E0
:100083000201CC010020FD00020000B30F000000BC
:100093000000004F1000000D1000009B0F00000037
:1000A300000000000000000000000000000000004D
:1000B300000000000006FFFF060008C21700000052
:1000C3000160EA00003914451400004B1451140078
:1000D30000000000000000000001000000002020DC
:1000E3002020202020202020202020202020010844
:1000F3000401000100021681021A810101010400BA
:100103000E18000000E8030000FFFFDA18E8030000
:100113000064006400B801A0BB0D00A0BB0D000289
:100123000200F8FF070502070401051E02051E026F
:100133000A0A0102080803B80B02803E0102FEFF0F
:10014300E8030A050001FFFF010A1401E0010105AC
:10015300030101FF0F10FEFFB42A000000008829ED
:1001630000000000FF000000FF00C0E074F1120572
:100173005BA2AFE433F509D2AF85A708AFA1EF5572
:1001830008FE74105E6006120D3175A1EF74085EEF
:100193006008120D3775A1F78024EFA2E092F0E515
:1001A30008A2E082F05017906198E0F8900493E081
:1001B300C398A2D265D0335002E8F075A1FEE509D9
:1001C300A2E092AF7F02020617C0E074F212055B51
:1001D300A2AFE433FED2AF9061A4E0F8759B00E5D3
:1001E3009158540860087591F7120D7F8023E591AB
:1001F30058541060087591EF120D858014E591A293
:10020300E092F0E8A2E082F05007E0C2E0F0120EC4
:10021300CF9061A3E0F8E5E9585404600E120EA5EF
:1002230075E9FB906193E0A2E640F2EEA2E092AFA3
:100233007F01020617C0E074F212055BA2AFE4333C
:10024300FED2AF9061A5E0F8E5BF5854046006758F
:10025300BFFB120EE780D4C0E074F112055BE59D8D
:10026300A2E650FA906206E0F9A2E25034AA2AEA22
:1002730090620BF0F508852B0974047808120C5270
:10028300E508906207F08A08852B0974097808123B
:100293000C52E508543E906209F0906201E0D2E00E
:1002A300F0E9782746F6906202E0F50875090074D4
:1002B300047808120B967827E50846F608E5094600
:1002C300F6906204E0F50875090074097808120BCA
:1002D300967828E50946F6E9A2E0500375290174EA
:1002E30006596003752900E58BA2E55006758BDF7F
:1002F300752900121295758B00C2E87F020206175A
:10030300C3E498F8E499F91203448026C3E49AFA03
:10031300E49BFBE920E7E9120344E498F8E499F944
:1003230022C3E498F8E499F9120344E498F8E499B1
:10033300F9C3E49AFAE49BFB22EB20E7CFE920E739
:10034300E0B90010BB0008E88AF084F8AAF022E4C0
:10035300FBC8FA22EB70227B10C833C8C933C933F8
:100363005007C39AC3DBF280069A50012ADBEAC81E
:1003730033F4C8C933F4C9FA2275F008E4C833C8A2
:10038300C933C933C99AC99B5004C92AC93BD5F09B
:10039300ECFBC833F4C8E4C9FA22080808EAC0E051
:1003A300EBC0E086F0E7A4FA180986F0E7A42AFA7E
:1003B300180986F0E7A42AFA180986F0E7A42AFAAE
:1003C3001986F0E7A4FBE5F02AFA190886F0E7A4FA
:1003D3002BFBE5F03AFA190886F0E7A42BFBE5F0CE
:1003E3003AFA18180986F0E7A4C5F02BFBE43AFAA9
:1003F3001908E7C5F0C6A426F6E5F03BFBE43AFA94
:100403001886F0E7A4F6E5F00826F6E43B08F6E4E0
:100413003A08F6D0E0FBD0E0FA22E4CFC0E0E4CE25
:10042300C0E0E4CDC0E0E4CCC0E075F020E626F601
:1004330008E633F608E633F608E633F6181818EC40
:1004430033FCED33FDEE33FEEF33FFC3EC9709EDE1
:100453009709EE9709EF97191919400FFFEC97FCCD
:1004630009ED97FD09EE97FE191906D5F0BFECF7D4
:1004730009EDF709EEF709EFF7191919D0E0FCD0E8
:10048300E0FDD0E0FED0E0FF222518C582C0E0E504
:100493001934FFC583C0E0E518C3958224F810AF73
:1004A300088583198582188008858319858218D267
:1004B300AFCEF0A3E520F0A37808E608F0A3DEFAB8
:1004C300EFF0A3E58124FAF8E608F0A3E608F0A329
:1004D300E608F0A30808E608F0A3E608F0A31581F0
:1004E3001581D0E0FED0E0F8158115811581E8C0B3
:1004F300E0EEC0E022120CC5B90003020545E47921
:1005030021780BB800028004F709D8FCE490042199
:10051300788679188002F0A3D8FCD9FA7AA67B1BD7
:1005230090008678E879018015E493A3AD82AE83C9
:100533008A828B83F0A3AA82AB838D828E83D8E9D0
:10054300D9E77582537583E674051209A475828908
:1005530075832774001209A4C0D02518C582C0E092
:10056300E51934FFC583C0E0E518C3958224F31071
:10057300AF088583198582188008858319858218B9
:10058300D2AFC8F0A3E9F0A3EAF0A3EBF0A3790894
:10059300E709F0A3D8FAECF0A3EDF0A3EEF0A3EF94
:1005A300F0A3D0E0F0A3D0E0F0A3D0E0F0A3E520E7
:1005B300F0A3E5F0F0A32212010002020000205193
:1005C30004A8160900010203010902430002010005
:1005D3008019090400000102020100052400100132
:1005E3000424020205240600010524010001070575
:1005F300820340004009040100020A0000000705CD
:10060300840240000007050402400000D5050000F5
:10061300F8050000851983851882E0C0E0A3E0F99E
:10062300A3E0FAA3E0FBA37808E0F608A3DFFAE06F
:10063300FCA3E0FDA3E0FEA3E0FFA3E0C0E0A3E092
:10064300C0E0A3E0F5D0A3E0F520A3E0A3F5F0100C
:10065300AF088583198582188008858319858218D8
:10066300D2AFD082D083D0E0F8D0E0320975F01059
:100673008E218F228582268583258518828519837D
:10068300E0CEA3E0CF852682852583EBC9EAC8EDBA
:10069300CBECCAC3E833C8E933C9EA33CAEB33CB7B
:1006A300C3EA9EF524EB9FF523B35004AB23AA249E
:1006B300EC33CCED33CDD5F0DAAE21AF2222D083AB
:1006C300D082ECC0E0EDC0E0E493A3FCE493A3FD8F
:1006D300ED4C600D1207DCEC24FFFCED34FFFD80D4
:1006E300EFE493A3FCE493A3FDED4C600D1208AF7C
:1006F300EC24FFFCED34FFFD80EFD0E0FDD0E0FC07
:10070300E493A3C0E0E493C0E022D083D082E9C0A5
:10071300E0E493A3C386F0C5F095F0F908E493A34E
:1007230086F0C5F095F0700BE493A3C3994005E9F7
:10073300048002A3E475F002A42582F582E5F03576
:1007430083F583D0E0F9E493A3C0E0E493C0E0220F
:10075300851983851882E0A3FEE0A3F5207808E0DD
:10076300A3F608DFFAE0A3FFE0A3C0E0E0A3C0E044
:10077300E0A3C0E0E0A3C0E0E0A3C0E010AF0885C1
:1007830082188583198008858218858319D2AFD092
:1007930083D0820209AAC0E074F212055BA2AFE41F
:1007A30033FED2AFE58AA2E2500790045FE0D2E0C5
:1007B300F0E58AA2E3500790045FE0D2E1F0758A86
:1007C30000C2EB7A107B0090045BE0F912112DEE6E
:1007D300A2E092AF7F01020617C0E0C3E49396083C
:1007E3007401939618400FE493667008087401939C
:1007F300661870007019A3A3C3E493960874019359
:100803009618A3A3400DD0E0D0E0D0E00206FDA3EC
:10081300A3A3A3A3A3D0E022D083D082C5F0E49303
:10082300A3C5F0C395F0F5F0E493A3C395F0400599
:10083300E5F0048001E475F002A42582F582E5F079
:100843003583F583E493A3C0E0E493C0E02274040A
:10085300800474028000CCC0E0EDC0E0E518C39CC6
:10086300CCAD1950011D10AF068C188D1980068C64
:10087300188D19D2AF120926D0E0FDD0E0FC227406
:10088300028000CCC0E0EDC0E0E518C39CCCAD19FC
:1008930050011D10AF068C188D1980068C188D1908
:1008A300D2AF120904D0E0FDD0E0FC22C0E0C0F0DA
:1008B30088F0E4936670080874019366187000A8C2
:1008C300F0A3A3700BD0F0D0E0D0E0D0E00206FD9F
:1008D300A3A3D0F0D0E022D083D082CCC0E0E493B5
:1008E300A360061209471470FAE493A36006120A80
:1008F300A61470FAD0E0FCE493A3C0E0E493C0E054
:1009030022CAC0E0E493A3C582CCC582C583CDC50A
:1009130083F0A3C582CCC582C583CDC583DAE5D078
:10092300E0CA22CAC0E0E0A3C582CCC582C583CD9C
:10093300C583F0A3C582CCC582C583CDC583DAE662
:10094300D0E0CA22C0E0E493A3D39C5010E493A365
:10095300C39C400AD0E0D0E0D0E00208F7A3A3A3F1
:10096300D0E0227009080808226016181818C6C3B8
:1009730033C608C633C608C633C608C633C6D5E071
:10098300EA22C008C3E096F50808A3E096420808E7
:10099300A3E096420808A3E09645087001D3D00867
:1009A30022C09FF59FE473D09F22D083D082C09F43
:1009B300E493C0E0740193C0E0740293F59F222591
:1009C30018F58210AF08F518400C15198008F518B2
:1009D30040021519D2AF8519832200C0D025181003
:1009E300AF08F518500C05198008F51850020519C1
:1009F300D2AFD0D0227404800A74038006740280BC
:100A0300027401C0E0F4041209C2D0E0120C702297
:100A1300BB0102E722C082C08389828A83BB0003B1
:100A2300E08002E493D083D08222C0E0C0D0E8C04B
:100A3300E0A8A8D2AFC2C7E8A2E792AFD0E0F8D04F
:100A4300D0D0E0326016080808C6C313C618C61310
:100A5300C618C613C618C613C6D5E0EA222518F869
:100A6300E43519F9222518FAE43519FB222518FC77
:100A7300E43519FD22C3E0C696F608A3E0C696F650
:100A830008A3E0C696F608A3E0C696F6222518103A
:100A9300AF08F518400C15198008F5184002151910
:100AA300D2AF22C0E0E493A36C7009D0E0D0E0D0D1
:100AB300E00208F7A3A3D0E022C3E09608A3E096E0
:100AC30008A3E09608A3E096A2D265D03322E76696
:100AD30070100809E766700A0809E76670040809D8
:100AE300E76622E066701008A3E066700A08A3E0D8
:100AF30066700408A3E06622C3E697F60809E69742
:100B0300F60809E697F60809E697F622C3E096F099
:100B130008A3E096F008A3E096F008A3E096F0227D
:100B2300C3E4939608740193960874029396087429
:100B330003939622E627F60809E637F60809E6370F
:100B4300F60809E637F622E056F608A3E056F6085B
:100B5300A3E056F608A3E056F622E647F60809E6B0
:100B630047F60809E647F60809E647F622E026F0C5
:100B730008A3E036F008A3E036F008A3E036F0223D
:100B8300E493F608740193F608740293F608740369
:100B930093F622700422600D18C6C333C608C63309
:100BA300C6D5E0F41822E657F60809E657F6080911
:100BB300E657F60809E657F622E026F608A3E036DC
:100BC300F608A3E036F608A3E036F622E056F0086E
:100BD300A3E056F008A3E056F008A3E056F022E4A1
:100BE300C396F608E496F608E496F608E496F62229
:100BF300C6F4C608C6F4C608C6F4C608C6F4C622B8
:100C0300600D08C6A2E713C618C613C6D5E0F322C3
:100C1300C3E7960809E7960809E7960809E79622C5
:100C2300C3E09608A3E09608A3E09608A3E0962203
:100C330075D00075813F751821751904000204F8F9
:100C4300E6F008A3E6F008A3E6F008A3E6F02260C6
:100C53000C08C6C313C618C613C6D5E0F422E0F6C3
:100C630008A3E0F608A3E0F608A3E0F622CAC0E072
:100C7300E6F0A308DAFAD0E0FA22E8F0A3E9F0A359
:100C8300EAF0A3EBF022E0F8A3E0F9A3E0FAA3E093
:100C9300FB22ECF0A3EDF0A3EEF0A3EFF022E0FCD7
:100CA300A3E0FDA3E0FEA3E0FF22EAF0A3EBF0A3A1
:100CB300ECF0A3EDF022E0FAA3E0FBA3E0FCA3E059
:100CC300FD22E5C754F84401F5C77901222518F53B
:100CD30082E43519F58322C2AF75D69F0200002244
:100CE3001209ADDFB9051209ADF3B9051209AD0C4F
:100CF300BA051209ADFDBA051209ADAFBB0512095C
:100D0300ADC3BB051209AD0CED051209AD30ED0500
:100D13001209AD49ED051209AD87ED051209ADB70D
:100D2300ED051209ADE4ED051209AD4AEE05120910
:100D3300AD4DEE051209AD57EE051209AD64EE0592
:100D43001209ADF4FC011209AD14FD011209AD53F2
:100D5300FD011209AD71FD011209AD8CFD011209EE
:100D6300ADF2FD011209ADFEFD011209AD5BFE01FD
:100D73001209AD7FFE011209AD40FF011209AD4D0D
:100D8300FF011209AD5EFF011209ADC5F605120997
:100D9300ADDDF6051209AD09F7051209AD36C60535
:100DA3001209AD92C7051209ADA0C7051209ADB36B
:100DB300C7051209ADC8C7051209ADDDC70512097C
:100DC300ADF0C7051209AD6CC8051209ADD1C80550
:100DD3001209AD67C9051209AD40CA051209AD5024
:100DE300CA051209AD5FCA051209ADFDF405120962
:100DF300AD21F5051209AD49F5051209AD71F505EA
:100E03001209AD2EE4051209AD55E4051209AD73BF
:100E1300E4051209ADE2E4051209AD767C0012097E
:100E2300AD8F7C001209AD9B7C001209ADAF7C0035
:100E33001209ADCD7C001209ADD77C001209ADE1DA
:100E43007C001209ADF47C001209AD7A7D00120911
:100E5300ADEF7D001209AD1E7E001209AD6C7E0060
:100E63001209ADBB7E001209ADD67E001209ADE0BA
:100E73007E001209ADF17E001209AD347F00120924
:100E8300ADA7F7051209AD19AD051209AD45AD05BD
:100E93001209AD62AD051209AD75AD051209AD902C
:100EA300AD051209ADEAAD051209AD18AE0512097B
:100EB300AD28B2051209AD86B3051209ADB8B30565
:100EC3001209AD1BB4051209AD91B5051209ADB9EF
:100ED300B5051209ADCEB5051209ADDEB50512098A
:100EE300AD1EB6051209AD60B6051209AD70B605A3
:100EF3001209ADF8F0051209AD12F1051209AD3A68
:100F0300F1051209AD53F1051209AD77F105120987
:100F1300AD95F1051209ADACF1051209ADDAF10594
:100F23001209ADF5F1051209ADF2F7051209AD5E2F
:100F3300DE051209AD6EDE051209AD75DF05120976
:100F4300ADA9DF051209ADCBDF051209ADEEDF0553
:100F53001209AD0CE0051209AD46E0051209ADAB6F
:100F6300E0051209ADEDE0051209AD34E105120902
:100F7300AD61E1051209AD98E1051209ADB3EF05C5
:100F83001209ADD1EF051209AD33F0051209ADCD4C
:100F9300F0051209AD0EFF021209ADD3FE041209CA
:100FA300AD1BFF041209AD6EEE051209AD93EF05FB
:100FB3001209ADD897051209ADC49B051209ADB945
:100FC3009D051209ADEB9E051209ADC49F051209DB
:100FD300AD5BA1051209AD27A2051209AD7BA205E0
:100FE3001209AD3FE8051209AD60E8051209AD9A93
:100FF300E9051209ADC4E9051209ADC3FF031209DE
:10100300ADD3FF031209ADDDFF031209AD14EF01E8
:101013001209ADA7F3011209AD09F5011209ADE0FB
:10102300F6011209AD69F7011209AD00F8011209C1
:10103300ADBFF8011209ADB3F9011209ADCBFA0145
:101043001209ADFAFB011209AD60E6041209AD63A2
:10105300E6041209ADEFED041209AD41EF041209E4
:10106300ADA2F0041209AD79F1041209AD52F204F4
:101073001209AD3BF3041209AD2FF4041209ADE7D5
:10108300F4041209AD17F5041209ADC7F6041209E9
:10109300ADA9EB051209ADC9EB051209ADDCEC05F1
:1010A3001209ADDFEC051209AD3F7F001209AD75E2
:1010B3007F001209AD917F001209ADD37F001209A1
:1010C300ADE37F001209ADB5F7041209ADEFF704E4
:1010D3001209AD58F8041209AD77F8041209AD905E
:1010E300F8041209AD32F9041209AD3BF9041209EF
:1010F300AD8CF9041209ADB5F9041209ADC2F904B6
:101103001209AD33FA041209ADC1FA041209AD0F85
:10111300FB041209AD45FB041209ADA6FB04120939
:10112300ADCFFB041209AD46FC041209ADA2FC04C9
:101133001209ADDFFC041209AD16FD041209AD2836
:10114300FD041209AD3AFD041209AD59FD0412095B
:10115300AD62FD041209AD1DFE041209AD69FE0462
:101163001209ADA7FE041209ADFFC0051209AD3F78
:10117300C2051209AD62C2051209AD73C205120997
:10118300AD92C4051209ADB2C4051209ADF0E10573
:101193001209AD26E2051209AD6EE2051209ADC7CB
:1011A300E3051209AD3C68001209AD6D690012092F
:1011B300ADA969001209AD636B001209AD8D6B0017
:1011C3001209AD066E001209AD466E001209ADDAC2
:1011D3006F001209AD7970001209ADD170001209C8
:1011E300AD6471001209AD9E71001209ADE071008A
:1011F3001209AD5373001209ADD374001209AD1077
:1012030077001209AD3E77001209AD6A7700120923
:10121300AD7377001209ADC977001209AD59780093
:101223001209AD977B001209AD197C001209ADE0DC
:10123300F8051209ADF6F8051209AD4AF7051209CA
:10124300ADFECE051209AD14CF051209ADB8CF0519
:101253001209ADF7CF051209AD14D0051209AD453A
:10126300D0051209AD92D0051209ADC6D0051209F9
:10127300AD01D1051209ADF6D2051209AD2DF30565
:101283001209AD8CF3051209ADCAF3051209AD0BB2
:10129300F4051209ADE4FF011209AD00800412093F
:1012A300AD0C80041209AD6E80041209AD78800480
:1012B3001209AD0581041209AD4181041209ADFD86
:1012C30081041209AD0A82041209AD6E8204120967
:1012D300ADB782041209AD8883041209AD038404F7
:1012E3001209ADC285041209ADF587041209AD5B7D
:1012F30089041209ADBC8A041209AD488B04120992
:10130300AD948C041209AD978D041209ADF18E04CE
:101313001209ADBB93041209ADB294041209AD36A0
:1013230095041209AD5B95041209AD809504120969
:10133300AD1996041209AD3796041209AD9D9604B2
:101343001209ADB996041209ADE996041209ADFB71
:1013530097041209ADCE98041209AD4B9A041209F1
:10136300AD6C9A041209ADEF9A041209AD959B0472
:101373001209ADDC9B041209AD549C041209ADB1F2
:101383009C041209AD3C9D041209AD949E041209FC
:10139300AD04A0041209AD96A0041209ADFCA0048B
:1013A3001209AD0DA3041209ADB2A4041209ADC70D
:1013B300A4041209ADFFA4041209AD6CA50412091B
:1013C300ADB0A5041209AD21A6041209ADC7A60448
:1013D3001209ADB4A8041209AD83A9041209AD958D
:1013E300AA041209AD43AC041209AD01EA051209BE
:1013F300AD9DEA051209ADBEEA051209AD38F8053F
:101403001209ADD08C051209AD048D051209AD4446
:101413008D051209ADD78D051209ADDB8F051209B4
:10142300AD3791051209ADC192051209AD9E930521
:101433001209ADB893051209ADF593051209AD3044
:1014430094051209AD4994051209AD699405120971
:10145300AD6C94051209ADB594051209ADF296056C
:101463001209AD1797051209AD70D6031209ADCB5A
:10147300D6031209AD5BD7031209ADD4D803120901
:10148300ADB4D9031209ADA2DA031209ADB9DA0377
:101493001209AD0BDB031209AD7FDB031209ADCBE0
:1014A300DB031209ADDEDB031209AD37DC031209DE
:1014B300ADA6DC031209ADBEDC031209AD86DF0362
:1014C3001209AD1CE0031209AD53E0031209AD9CF0
:1014D300E0031209AD9EE2031209ADEEE203120925
:1014E300ADC8E3031209AD01E4031209AD20E4031F
:1014F3001209AD6BE4031209AD8BE4031209AD428B
:10150300E5031209AD12E6031209AD1DE603120944
:10151300AD91E6031209ADECE6031209AD39E70319
:101523001209AD44E8031209ADE8EA031209AD1B41
:10153300EB031209ADBDEB031209ADE2EB03120994
:10154300AD66EC031209AD43ED031209AD81ED0362
:101553001209ADE5ED031209ADA3EE031209ADA621
:10156300EE031209ADB0EE031209ADBAEE03120990
:10157300ADD6EE031209AD52EF031209AD8BEF03A3
:101583001209ADA7EF031209ADD3EF031209ADFAA8
:10159300EF031209AD1EF0031209AD59F00312094E
:1015A300ADCCF0031209AD00F1031209AD41F10313
:1015B3001209AD5BF1031209AD82F1031209ADB15A
:1015C300F1031209ADD1F1031209AD0EF2031209B1
:1015D300AD45F2031209AD48F3031209AD80F403DC
:1015E3001209AD9FF4031209ADB6F4031209ADC895
:1015F300F4031209AD8CFF011209ADA4FF01120916
:10160300ADD7BB051209AD15BC051209ADAEBC05BE
:101613001209ADB9BD051209AD01C0051209AD7EB0
:10162300C0051209ADECF7021209AD3BF80212092D
:10163300ADF9F9021209ADB3FB021209ADF1FB02D8
:101643001209ADE6FC021209ADF1FD021209AD1358
:10165300FE021209AD5DFE021209ADDEFE021209A1
:10166300AD2ED8021209AD51D8021209AD52D902DA
:101673001209AD9BD9021209ADFBD9021209AD576C
:10168300DA021209ADA8DA021209AD1EDB02120951
:10169300ADA1DB021209AD16DC021209AD59DC0261
:1016A3001209AD41E0021209AD9AE2021209ADCD71
:1016B300E2021209AD23E3021209AD6DE60212093B
:1016C300ADF2E6021209AD7CE8021209AD85E9022A
:1016D3001209ADB5EA021209AD19EB021209ADD92F
:1016E300EB021209AD3DEC021209AD40EC02120906
:1016F300AD15ED021209AD4DEE021209AD14F00263
:101703001209AD2CF2021209AD2DF3021209ADBB81
:10171300F3021209AD13F5021209AD4BF6021209D9
:10172300AD8AF6021209AD3EF7021209AD6EAE04A0
:101733001209AD0EAF041209AD7AAF041209AD95CB
:10174300AF041209AD36B0041209AD7DB00412091D
:10175300ADA4B1041209ADE7B1041209AD63B2043B
:101763001209ADB6B2041209AD15B3041209ADC323
:10177300B3041209AD7EB6041209ADA8B704120969
:10178300AD31B8041209AD14BA041209ADB8BA04E4
:101793001209AD57BB041209ADB8BB041209AD273A
:1017A300BC041209AD8BBD041209AD6ABE04120953
:1017B300ADA5BE041209ADC5BE041209AD76BF04C2
:1017C3001209ADB3BF041209AD3CC0041209ADD672
:1017D300C1041209AD9CC3041209AD1FC50412094B
:1017E300AD91C6041209ADA0C7041209AD2DC804FA
:1017F3001209AD97C8041209ADAEC9041209AD01AF
:10180300CB041209AD6CCB041209ADB4CB0412099D
:10181300ADF8CB041209AD53CC041209ADB0CC041E
:101823001209ADEBCC041209AD6FCD041209ADC999
:10183300CD041209AD38CF041209ADB0CF0412099B
:10184300ADC8D0041209ADF0D0041209ADFCD10427
:101853001209AD0DD2041209AD25D2041209AD4E01
:10186300D3041209AD71D3041209AD4AD404120989
:10187300AD6ED4041209AD85D4041209ADA9D40404
:101883001209ADCBD4041209ADA5D5041209ADFFDD
:10189300D5041209AD79D7041209ADD5D7041209BD
:1018A300ADECD7041209AD1AD8041209AD6CD904F2
:1018B3001209ADEBD9041209AD22DA041209AD5CA9
:1018C300DA041209ADC8DA041209AD87DB04120980
:1018D300AD65DD041209AD65DE041209AD70DF04E8
:1018E3001209AD82E0041209ADAAE1041209ADB8F0
:1018F300E1041209ADBDE2041209AD5FE30412096C
:10190300ADA5E3041209ADBAE3041209ADC2E404C0
:101913001209AD63E5041209ADBFE5041209ADF187
:10192300D6051209ADACD8051209AD6BD90512095C
:10193300ADC0D9051209AD46DA051209AD03D305C9
:101943001209AD21D3051209AD65D3051209AD8B7B
:10195300D3051209ADB2D3051209ADCAD3051209D5
:10196300ADE2D3051209AD96F5051209AD9CD40578
:101973001209ADDED4051209ADF3D4051209AD1574
:10198300D6051209AD1ED6051209AD27D6051209D3
:10199300AD30D6051209AD3AD6051209AD90CA0588
:1019A3001209AD84CE051209AD92CE051209AD9789
:1019B300CE051209ADCCE6051209ADB4F80512093E
:1019C300AD0080021209AD5780021209ADC3800237
:1019D3001209ADA3B9051209AD0582021209AD4D75
:1019E30082021209AD6682021209AD8982021209CE
:1019F300ADAB82021209ADE982021209AD3883024E
:101A03001209AD6383021209ADC183021209AD68E5
:101A130084021209AD1085021209AD8C85021209E8
:101A2300AD5986021209ADA086021209ADEC8602F9
:101A33001209AD7487021209ADAD87021209AD0315
:101A430088021209AD1F88021209AD4E88021209DD
:101A5300AD5A8A021209AD888B021209ADB48B020A
:101A63001209ADE88B021209AD098C021209AD18F7
:101A73008C021209AD238C021209ADD28C02120919
:101A8300AD428D021209ADCD8D021209ADD58D0285
:101A93001209AD428E021209AD7E8E021209AD44C7
:101AA3008F021209AD1790021209AD6C9002120950
:101AB300AD0B91021209AD6591021209ADAA910213
:101AC3001209AD4394021209AD8695021209AD7055
:101AD30098021209AD5499021209AD389A021209FB
:101AE300AD499A021209ADBB9A021209AD529B028B
:101AF3001209ADB79B021209ADA79C021209ADCC26
:101B03009C021209ADEA9C021209AD069D0212095C
:101B1300AD799D021209AD889D021209AD109E0296
:101B23001209AD0D9F021209AD1A9F021209AD23CE
:101B33009F021209AD05A1021209AD27A2021209E3
:101B4300AD37A2021209AD65A3021209ADE4A302E7
:101B53001209ADFFA4021209AD3BA5021209AD158E
:101B6300A7021209ADD2AA021209ADE6AA0212090E
:101B7300ADF0AA021209ADFAAA021209AD04AB0232
:101B83001209AD1DAB021209AD27AB021209AD94C8
:101B9300AB021209AD9FAB021209ADC7AB0212092A
:101BA300ADD2AB021209AD37AC021209AD42AC02A1
:101BB3001209AD66AC021209AD8AAC021209ADFC82
:101BC300AC021209AD45AD021209AD61AD021209B5
:101BD300ADD2AD021209AD1EAE021209AD67AE025F
:101BE3001209ADA5AE021209AD26AF021209ADCDA1
:101BF300AF021209AD9CB1021209AD01B202120982
:101C0300AD2FB3021209AD55B3021209AD9DB40253
:101C13001209ADD7B7021209ADD5B9021209ADA0A9
:101C2300BB021209AD39BC021209AD3ABE02120958
:101C3300ADEFBE021209AD28BF021209AD8EBF027D
:101C43001209AD98BF021209ADC1C1021209AD005C
:101C5300C3021209AD57C3021209AD02C40212092D
:101C6300ADB2C5021209ADFFC6021209AD1FC7020C
:101C73001209AD74C7021209AD75C8021209AD9DF0
:101C8300C8021209ADFCC8021209ADF4C902120957
:101C9300AD6BCA021209AD7ECB021209ADECCB02C9
:101CA3001209ADEBCC021209AD45CF021209AD6E9C
:101CB300CF021209ADD4D0021209AD56D2021209D5
:101CC300ADADD2021209AD5BD3021209AD00D4024D
:101CD3001209AD59D4021209AD17D5021209ADA9E3
:101CE300D5021209AD08D6021209AD4AD60212096D
:101CF300AD7BD6021209ADD2D7021209AD00800323
:101D03001209AD3280031209AD6B80031209AD29AC
:101D130082031209ADFF82031209AD5E8303120928
:101D2300AD7484031209ADC084031209AD4E870359
:101D33001209AD288A031209AD6F8B031209AD078F
:101D43008C031209AD138C031209AD5C8C031209C9
:101D5300AD9E8D031209AD948E031209ADBE8E03A1
:101D63001209AD148F031209AD6D8F031209ADE093
:101D73008F031209AD1692031209AD98930312094A
:101D8300AD8394031209ADCD95031209AD059803F4
:101D93001209AD029B031209AD119B031209ADA5F4
:101DA3009B031209AD509C031209AD939C031209C6
:101DB300ADFB9C031209AD179D031209AD469D03AC
:101DC3001209AD859D031209AD809E031209AD2F43
:101DD3009F031209ADACA1031209ADDEA2031209E0
:101DE300ADB6A3031209AD38A4031209AD6DA80360
:101DF3001209AD9CA8031209ADF7A8031209AD2A75
:101E0300A9031209ADA2A9031209ADD5A9031209A9
:101E1300AD36AA031209AD86AA031209AD53AB036B
:101E23001209AD0CAC031209ADD0AC031209AD4AD3
:101E3300AF031209ADACB0031209ADFDB103120932
:101E4300AD21B3031209AD24B3031209AD53B30398
:101E53001209AD4BB5031209AD0AB6031209AD3928
:101E6300B6031209AD57B7031209AD1FB803120920
:101E7300ADDDB9031209AD0FBA031209AD51BA03AF
:101E83001209AD50BB031209ADC3BB031209ADEC7C
:101E9300BD031209AD4BBE031209AD9FBE03120968
:101EA300ADCEC0031209ADB1C1031209AD39C203EE
:101EB3001209AD27C3031209AD3BC3031209AD4F8A
:101EC300C3031209AD7CC3031209ADACC3031209EA
:101ED300AD67C5031209AD79C6031209ADCEC603BA
:101EE3001209AD17C7031209AD3EC7031209AD06A8
:101EF300C8031209ADACC8031209AD32CA031209F3
:101F0300AD79CA031209ADEBCA031209AD40CC0384
:101F13001209ADE9CC031209AD1DCD031209AD358C
:101F2300CD031209ADD8CD031209AD54D003120964
:101F3300ADFCD1031209AD1AD2031209AD38D20395
:101F43001209AD04D3031209AD52D6031209AD50E1
:101F530081011209AD8881011209AD7C8601120944
:101F6300ADC886011209AD0E87011209AD4488017F
:101F73001209ADA988011209AD1E8A011209AD2803
:101F83008D011209AD518E011209AD649801120938
:101F9300ADF498011209ADDE9B011209ADEB9C0172
:101FA3001209AD4E9D011209AD969E011209AD04B1
:101FB300A1011209AD96A2011209AD23A3011209D1
:101FC300AD42A4011209ADCFA4011209ADD9A401F8
:101FD3001209AD01A5011209ADA1A5011209AD8C2C
:101FE300A6011209AD59A7011209AD76A70112097D
:101FF300AD9FA7011209ADCCA7011209AD13AA0128
:102003001209ADE2AA011209AD21AB011209ADA378
:10201300AB011209AD44AC011209AD76AC01120952
:10202300ADBDAC011209ADF0AC011209AD34AD0187
:102033001209AD83AD011209AD88AD011209ADE4FA
:10204300AD011209AD28AE011209AD02AF011209AB
:10205300AD67AF011209ADCDAF011209AD48B001B3
:102063001209ADB0B3011209ADB3B4011209AD3118
:10207300B6011209AD47B9011209ADE9B901120957
:10208300AD32BC011209ADEDBC011209AD2CBD018D
:102093001209AD04BF011209AD21BF011209AD2A16
:1020A300BF011209AD33BF011209AD3EBF011209D1
:1020B300AD5DBF011209AD01C1011209AD5EC101E0
:1020C3001209AD68C1011209AD72C1011209ADD186
:1020D300C1011209AD1BC2011209AD1CC3011209D2
:1020E300AD73C3011209AD84C4011209ADCDC4019E
:1020F3001209AD87C5011209AD9EC6011209AD7360
:10210300C7011209ADBAC8011209ADBEC90112094E
:10211300ADB7CA011209ADCFCA011209AD06CB0191
:102123001209AD10CB011209AD1ACB011209AD256D
:10213300CB011209AD43CB011209AD8BCB011209BF
:10214300ADE9CB011209AD10CC011209AD22CC01CE
:102153001209ADD7CC011209AD10CD011209AD3270
:10216300CE011209AD85CE011209AD6BCF01120963
:10217300AD92CF011209AD02D0011209AD7ED0019B
:102183001209ADDAD1011209AD01D3011209ADC3B0
:10219300D3011209AD91D4011209AD4FD501120932
:1021A300AD37D6011209ADE1D6011209AD49D70108
:1021B3001209ADFED7011209AD5AD8011209ADB209
:1021C300D8011209AD78D9011209AD9BD9011209C1
:1021D300AD56DA011209AD78DA011209ADD9DA0187
:1021E3001209AD09DD011209AD02DE011209ADAE1E
:1021F300DE011209ADCFE0011209AD18E1011209A8
:10220300AD63E1011209ADBFE1011209AD1DE201A8
:102213001209AD41E2011209AD65E2011209AD9A5D
:10222300E2011209ADC2E2011209AD07E30112098D
:10223300AD5BE3011209ADB4E3011209ADAEE401F4
:102243001209AD4CE6011209AD91E6011209ADBACE
:10225300E6011209AD43E7011209ADB6E701120920
:10226300ADC4E7011209ADE8E7011209AD3EE8018B
:102273001209AD59E8011209AD14E9011209AD4083
:10228300E9011209AD83E9011209ADE6E901120979
:10229300ADF4EB011209AD20EC011209ADDBEC0149
:1022A3001209ADBFED011209AD53EE011209AD994B
:1022B300A2051209ADD1A2051209ADF2A2051209B8
:1022C300AD34A3051209AD98A3051209ADA2A30568
:1022D3001209ADB2A3051209ADE9A3051209AD9226
:1022E300A7051209AD5AA9051209AD3EAB0512099E
:1022F300ADE0AB051209AD6AAC051209AD7A2E004B
:102303001209AD232F001209AD0230001209AD0EE0
:1023130031001209AD2E31001209AD5032001209FD
:10232300AD0034001209AD6D34001209AD3E350025
:102333001209AD4436001209ADBC36001209ADF7DF
:1023430036001209AD5037001209AD8B3700120960
:10235300ADD437001209AD6838001209ADFE38005C
:102363001209ADD339001209ADA63A001209AD34F2
:102373003B001209AD5A3B001209AD873B0012091D
:10238300ADB83B001209AD853C001209AD953C0088
:102393001209ADE83C001209ADF53C001209AD028B
:1023A3003D001209AD0B3D001209AD6F3D0012094E
:1023B300ADCD3D001209AD183E001209AD333E000C
:1023C3001209AD5A3E001209AD773E001209AD83E2
:1023D3003E001209AD1440001209AD2D4000120950
:1023E300ADA940001209ADBC40001209ADCC4000BC
:1023F3001209AD7041001209ADDC42001209ADEFC4
:1024030043001209AD8F44001209AD99440012092B
:10241300AD1845001209AD2945001209AD68450004
:102423001209AD9645001209AD6346001209ADBA13
:1024330046001209ADF346001209AD4947001209DF
:10244300AD6747001209ADB547001209AD804800DA
:102453001209ADCE48001209AD1B49001209AD9E09
:1024630049001209ADC849001209ADFE490012091D
:10247300AD0D4A001209AD6C4A001209ADE44A00E1
:102483001209AD254B001209AD754B001209ADA021
:102493004B001209ADBA4B001209ADD44B0012091F
:1024A300ADA94C001209ADB34C001209ADEE4C00BE
:1024B3001209ADFE4C001209AD074D001209AD58CB
:1024C3004D001209AD6C4D001209AD8E4E0012097C
:1024D300ADA34E001209AD364F001209ADAA4F004D
:1024E3001209AD4F50001209AD5A50001209ADBD8B
:1024F30051001209ADD951001209AD25520012093C
:10250300AD9352001209ADC552001209ADDF52005E
:102513001209AD3F53001209ADDE53001209AD2974
:1025230054001209AD7C56001209AD14570012096C
:10253300AD8B57001209ADE859001209AD005A00DE
:102543001209AD035A001209AD0F5A001209AD2347
:102553005A001209AD2B5A001209AD625A00120932
:10256300AD565B001209ADE05B001209AD625C0081
:102573001209ADE25C001209ADB95D001209ADDBD1
:102583005D001209AD745E001209ADD15E0012093F
:10259300ADD45E001209AD435F001209AD8F600038
:1025A3001209ADA261001209AD2D62001209AD40FE
:1025B30063001209AD0764001209AD386400120903
:1025C300AD5E64001209AD6764001209AD96640044
:1025D3001209AD4665001209ADF665001209AD6931
:1025E30066001209AD0C67001209AD7F670012097E
:1025F300ADBE67001209AD0768001209AD14F305FB
:102603001209ADACF2051209AD28F2051209ADC2EB
:10261300F6051209AD5AF6051209AD45F60512097C
:10262300AD35F6051209ADED7F001209ADE7FF01E7
:102633001209ADDCF4051209AD3EF4051209AD2D06
:10264300F4051209ADF68B051209AD1A8B051209B3
:10265300AD388A051209AD9788051209AD5688056C
:102663001209AD2D88051209ADE187051209AD5098
:1026730087051209ADC086051209AD9E86051209AC
:10268300AD4686051209AD0286051209AD8F850593
:102693001209AD63B9051209AD2A85051209ADCC3E
:1026A300B6051209ADA0B6051209AD7CF8051209ED
:1026B300ADF9DD051209AD27DC051209AD52DB05C5
:1026C3001209ADD9DA051209ADCBDA051209ADD974
:1026D30084051209AD0084051209AD708305120942
:1026E300AD2483051209AD22F6051209AD9F8205BB
:1026F3001209AD5A82051209AD3E82051209ADDDFC
:1027030080051209ADD2F5051209ADAF8005120996
:10271300AD4F81021209AD7C80051209AD00800521
:102723001209AD78FF031209AD16FF031209ADE1DB
:10273300FE031209ADAEFE031209AD86FE031209B4
:10274300AD1CFE031209ADFEFD031209ADCFFD035F
:102753001209AD96FA031209AD83F8031209AD8687
:10276300F6031209AD06F6031209ADB4F503120917
:10277300AD99F5051209AD68F5031209ADFBF40334
:102783001209ADFAD30500000080FBE47387000152
:10279300006B1C35000400301C25000200341C268D
:1027A300000200361C27000200381C2800010042EA
:1027B3001C29000100431C84000400441C86000102
:1027C30000481C2A000100491C2B0001004A1C2C54
:1027D3000001004E1C2D0008005C192E0001004F63
:1027E3001C2F000100501C30000100511C3100015E
:1027F30000521C32000100641933000100651934D2
:10280300000100531C360001006619380001005412
:102813001C390001004D1C83000200691C63000188
:10282300007219640001004B1C650001004C1C6D13
:102833000001007319710008005419660001006853
:102843001C43000100591C440002005A1C450001AE
:10285300005C1C460002005D1C470008006A194822
:102863000001005F1C4B000100601C040001006CB0
:102873001CA10001006F1C370001006E1C880001C1
:10288300006D1C3C00010067193D000100551C4907
:10289300000200611C6700010074194D000200630F
:1028A3001C4E000100651C4F000200661C3E000127
:1028B30000691951000100561C52000100571C53B6
:1028C300000100581C5400010068190000000000BA
:1028D300000001363601010001020100010301007D
:1028E3000104010606050200000701003408010087
:1028F3000F090401010D0100FF0E0800001702007B
:1029030000190100FF1A0100011B0100FE1C010058
:10291300081D0200001F0100012001000121020027
:10292300002301000F2402000026010001270100FB
:1029330008280200FF2A0100072B0102402C010096
:10294300002D0100012E0100012F0100FF30010BBA
:102953001D310800003A0100083B01000F3C010053
:10296300013D0100FF3E0400004204000046040054
:10297300004A0400004E0400005204000056040004
:10298300005A040000010371030103010301030161
:1029930003010322030203010310030003000300E6
:1029A30003000300030003000342030003240306A0
:1029B3000300030003040312032503230325032356
:1029C30003040304030003000300034403000300A0
:1029D300032303000365032100350381030003057B
:1029E3000300030003000300032503230303027111
:1029F300023001600211027002010202020202802F
:102A030002100261023A0041006302730272026221
:102A13000243020002130238000002000204021201
:102A2300020002000200020002040204023700371F
:102A3300003C024402000239000002000265020069
:102A430002350281020002050282028302000201B2
:102A530001710101010101110101013101010101B3
:102A6300018001100161013B0014006301730172D5
:102A730001620143010001130106013D0135000418
:102A830001120100010001000100010401040133EE
:102A93000133013C014401320136000001000165AC
:102AA300010001350081010001050182018301005C
:102AB3000103007100300160001100700031022039
:102AC30003500480001000610000001400630073D1
:102AD30000720062004300000013000600000000C3
:102AE30000040012000000000000000000040004C5
:102AF30000370037003C02440000000000000000E3
:102B0300006500000035008100000005000000831F
:102B13000000000304710402046004110470040241
:102B23000402040104020410046104000414046395
:102B330004730472046204430400041304060400CF
:102B430004000404041204000400040004000451FB
:102B530004640000040004000444040004000400AE
:102B630004000465040004350481046400050400C2
:102B7300048304000436000100060000000F000077
:102B8300000000000000000000000003FFFF000041
:102B93000403FFFF0000FFFF0FF4010005C404035B
:102BA30020000100000B00000000000000000301F2
:102BB3000F00000000000000000000000000000003
:102BC3000000000000000000000000000000000002
:102BD3000000007F13CD138513B91200000000001D
:102BE30000000000000000000000008B13B91291E8
:102BF30013B9129713B9129D13B912A313B912A9DA
:102C030013B912AF13D313B513B9120000000000A8
:102C130000000000000000BB13E513C113B912BB91
:102C230013E513C113B912AF13D313C713B91200AA
:102C3300006F171300F7161F00FD161F80031701FF
:102C4300006F1702007F160300851604008B16051C
:102C530000911606009D163000BB163100B51632E2
:102C630000C7163300CD163500D3163400D91636F7
:102C730000DF161100EB161400F1161500AF16FF56
:102C8300FF00000000030020014D81000000002030
:102C9300014E810000040042014B80000005004208
:102CA300013A800000060042015C8000000700201A
:102CB300014F81000010004203001C00001100209E
:102CC30003D417000012001003111C0600000010AB
:102CD30001D7170A000000020000000400000008EA
:102CE30000000010000000200000004000000080F1
:102CF30000000000010000000200000004000000CA
:102D03000800000010000000200000004000000147
:102D1300911F06BB1F08B51F0BD31F10AF1C0297D3
:102D23001F05A91F079D1F0C791F0D851F64AB1A73
:102D3300FF000007ECFDFDFDECDCDCCCBCACAC9C87
:102D43009C8C7C7C6C6C5C5C5C4C4C3C3C2C2C1CF0
:102D53001C03EAF5E5D5D5C5B5A5959585857575A6
:102D63006565555545453535252515150500160F5A
:102D730000000B150B020002220F3300000E5A69EC
:102D830067426565416C6C69616E63653039010347
:102D93000507090B0D0F00020406080A0C0D0000BD
:102DA30000040600000406000104060002040003F8
:102DB3004A49434E181A25050200393D3F373C3C2A
:102DC300362C442D0001191618161618230300304B
:102DD3003017181921301B1D1F30303016181920D9
:102DE300231A1C1E300C0E020B040B0A0708000FDB
:102DF300020402010101010902E803000000BE040C
:102E03000A00007F000E00E8030000050404001020
:102E13000803030A1E0C0A10080C281EFF000903EE
:102E2300010C0508150404E0041236AAA2E792AFC8
:102E330022E4F0A3F0A3F022A3122E34A3F0227F06
:102E43000C020753E0F508E4F509F50AF50B2274C3
:102E530001F09004ABE0640F2274091209DD7F04D2
:102E6300020753A3A3E024F5C39413229004CB12C7
:102E730059A37A147B0022C082C083901A8E745D9A
:102E8300F0A37423F0A3746FF0A37423F0901A9249
:102E93007445F0A37423F0A3743FF0A37423F0A349
:102EA300747BF0A37423F0A37481F0A37423F0A3C1
:102EB3007475F0A37423F0A3742DF0A37423F0901E
:102EC3001A9E7451F0A37423F0A37457F0A37423D0
:102ED300F0A3744BF0A37423F0A37487F0A37423BB
:102EE300F0901AAF124F30600612519A12119F9050
:102EF3001AAC1246537408F0A3E4F0A3F0901B4FEE
:102F0300F0901AB1F07C0BFDF97AB27B1A1210D350
:102F13007C0B7D0079007ABD7B1A1210D302465CCC
:102F230074F712048C74F7120A90EAFEEBFF124452
:102F33007A7405122FF07403F0EE2402FAE43F12C0
:102F43002FCA242DFCE43FFD8C828D83123108129D
:102F53002FD9600812385274FFF0A3F0EE242BE44B
:102F63003F1C1CFD8C828D83A3E0C0E08A828B838F
:102F730012448BD0E0122FD988828983124C832488
:102F83000312576D12128F7408120CD07403F09051
:102F930004C01208557402120A707903EEFAEFFBAB
:102FA30012251F74021209DDE9F5087007EEFAEF26
:102FB300FB1223FFA9087409023862F582E43FF586
:102FC300831263D8124C78FB8A828B83122FE8E832
:102FD300F0A3E9F0EE221259C1122FE8E8F0A3E9B9
:102FE300125F3DE0221230D38A828B8322F0A3E466
:102FF300F0122FF822EE240DF582E43FF5832274BC
:10300300F112048CEAFEEBFF8C088D09890A123059
:10301300DD8A828B831230D3740F120CD01230F6F8
:10302300E824FF18E934FFF988828983E50A12301E
:10303300E89004C51230E59004C41230E57411120F
:103043000CD01230F6EE2404FCE43FFD880B8A8298
:103053008B83E0F50C8C828D83E0250CC3950B12DA
:1030630059BDE8F0A3E91243E7A3A3A3A3A3A3A332
:10307300A3E064037008124743F0A3E48003123310
:10308300E9122FF37409F0750CB2750D1A750E0061
:10309300780C1209FC1233DD1210C774031209DD18
:1030A300750CFF750DFF780C120A00AC08AD097999
:1030B30003EEFAEFFB12251F74021209DDE9F5088E
:1030C3007007EEFAEFFB1223FFA9087F07020753ED
:1030D300E024FFF8A3E034FFF922EE2402FAE43FF0
:1030E300FB221231081230EC22F0E824FF18E934F5
:1030F300FFF922E0F50CA31231081230EC88828923
:1031030083E50CF022E08882898322C082C0839009
:103113001ACEE0C39408400474078001E08A828BCE
:1031230083F033333354F8F902465C74F012048CA1
:10313300EAFEEBFF890C8C0E8D0F750A00A2AFE43B
:1031430033F50BC2AF901AC8803F123216503712B4
:10315300322764037030EE24F9FEEF34FFFF850855
:1031630082850983A3A3E02405FCA3E03400FDEEDC
:10317300FAEFFB12128FEE24FF1EEF34FFFF7410E1
:10318300250AF50A150C1243B41263D4E50C600644
:10319300E508450970B4E50BA2E092AFA2AFE433B2
:1031A300F50BC2AF901AC8802C2402FAE43509FB50
:1031B3008A828B831259AC2406F582E438F5831294
:1031C30032348A828B8312321CA3A3123234050A4F
:1031D300150C1243B41243C96022123227640270E1
:1031E300F1123216E50840C1123517A2E550E38506
:1031F3000E82850F837401F0E50C70D6E50BA2E017
:1032030092AF8E828F83E50AF0EE24FFFAEF34FF4C
:10321300FB8035123522A2E62212322022125DA152
:10322300A3A3A322850882850983125D9B1253D52C
:1032330022E08E828F83F0EE24FF1EEF34FFFF2205
:103243001225EB74041209DD7F0802075374EC1294
:10325300048C74F5120A9089138A128B0F851882D5
:10326300851983E4F004120A6812230FE9F8900425
:10327300AAE0292434F508FA7B001210EB8A0A8BA2
:103283000BAE0AAF0BEE4F70030233D1EE2402F5FF
:103293000AE43FF50BA808EE28F8E43FF9850A8213
:1032A300850B83122FD22404F510E43FF51185100A
:1032B30082F583E4F09004AAE0FCF8C3E498F8955F
:1032C300E0F9850A82850B83E028F508A3E039F548
:1032D300099004A8125665750E00780C1209FC7D3E
:1032E30000AA08AB091210C774031209DDAC18ADAC
:1032F300197401120CD0E0F9E50824FFFAE509344A
:10330300FFFB1223158A828B83E4F0EA24FFF5087E
:10331300EB34FFF509E50FC454F0F9901B50E0C4FA
:10332300333354C0F89004A4E0A2E0E43313134809
:1033330049440F1233F1E512C454F0451385088252
:10334300850983F0A808850A82850B83E0FA851036
:1033530082851183E02AC398F0850A82850B83E86E
:10336300F0A3E509F01233E9122FF3E4F0740A1223
:103373000CD0E4F07508BD75091AF50A780812092E
:10338300FC1233DD1210C774031209DD8518828520
:103393001983E06009EE240E1245104408F012254B
:1033A30007E9F9E4F508F5097808120A007404122C
:1033B3000A70EEFAEFFB12251F74021209DDE970A1
:1033C30006EEFAEFFB800BEEFAEFFB1210F17A0038
:1033D3007B00740B1209DD022E427C0B7D00EE2470
:1033E30018FAE43FFB2212447EE4F0A322E08508AE
:1033F300828509831233FB22F01256392274F312A9
:10340300048C8A0A8B0BA2AFE433F50CC2AF7508A8
:1034130000750900901AC8802C12363E5024850A84
:1034230082850B83A3A31268018E828F83A3A312C9
:10343300519D12250DE9600A123464C2E6F08E082C
:103443008F091236331238EC70CFE5084509600650
:1034530012351ED2E6F0E50CA2E092AF7F0502071B
:103463005312346822125652E02274F012048CEA8A
:10347300FEEBFF8C0C8D0D750E00A2AFE433F50F40
:10348300C2AF750800750900901AC88020850A0824
:10349300850B0912351ED2E4F0E508123517D2E781
:1034A300F0E50A24FBF582E50B34FFF583E0F50A2A
:1034B300A3E0F50BE50A450B6043E50A12429F358D
:1034C3000BF583E0A2E750D9850A82850B83A3A37A
:1034D300120855AC0CAD0DEEFAEFFB122513740276
:1034E3001209DDE960BBE508450960A1E508240D83
:1034F30012352A64017006123533D2E4F0E50FA2C7
:10350300E092AFE508450960061223F9750E01A99B
:103513000E02324B1242C912352D2212352222E5F8
:1035230008241112352A22F582E43509F583E022B5
:10353300850882850983125D9BE02274F212048C54
:1035430074FE120A90750C00750D0085188285199A
:1035530083E4F0A3F0A2AF33F50AC2AF901AC8E038
:10356300FEA3E0FF8035EE24FBF582EF34FF126308
:10357300D2780C120A00EEFCEFFD7AC87B1A121106
:103583002174021209DDEEFCEFFDAA18AB1912112A
:103593000FAE08AF09901ACEE014F0EE4F60271279
:1035A300363E501DEE240BF8E43FF988828983E010
:1035B30024FFF0A3E034FFF088828983124F306048
:1035C300A512362F8099E50AA2E092AF901ACEE0B9
:1035D30060319004ABE0640F6006901B4FE07023F2
:1035E3007AA67B1A1225F79081461208517AA67B98
:1035F3001A1225EB74041209DD800874F012487A5C
:103603001223EDAA18AB191211158A0A8B0BAE0AF5
:10361300AF0BEE4F6013122321123464A2E28E82A9
:103623008F83A350D674E980D40238F48E0C8F0DA7
:10363300EE24FBF582EF34FFF58322123468A2E710
:103643002274F712048CEAFEEBFF12232112448842
:1036530012278EE964019004C7700AE02401F8A3DD
:10366300E034008004E0F8A3E0F9124AD6124E8851
:10367300901ACEE070219004ABE0640F70197AA623
:103683007B1A1225F79081461208517AA67B1A12EB
:1036930025EB74041209DDA9A8C2AF901ACEE00489
:1036A3001236AAA2E7800DF0E9A2E7E433F8E92293
:1036B300E508A2E092AF02491674F712048CEAFE01
:1036C300EBFF1236F1F0122321EEFCEFFD7AC87BFB
:1036D3001A12111BA9A8C2AF901ACE122E2A900457
:1036E300ABE0640F700579081224BF024916123447
:1036F30068C2E42274F712048C74EA120A90EAFE98
:10370300EBFF9004A4E0604085188285198374015F
:10371300F0120CD0E41237C9120CD0AA82AB831278
:10372300128F8E828F83123539C0E0740A120CD047
:10373300D0E01259D2740B120CD0AA82AB8312259B
:1037430037AA18AB1912199D741602386274F7124E
:10375300048CEAFEEBFF122303E9F974DC69601EB3
:1037630074DD69601974E469601474F369600F743B
:10377300DE69600A74DF69600574DB697007EEFA5D
:10378300EFFB1224C502491674F712048C74EB1272
:103793000A90EAFEEBFF85188285198374061237B7
:1037A300C9120CD0AA82AB8312128F1259D7740A92
:1037B300120CD0AA82AB83122537AA18AB1912199F
:1037C3009D7415023862F0EE2413FCE43FFD74028D
:1037D3002274F712048C74F7120A90EAFEEBFFEEE0
:1037E300242D12451060651240A1AA18AB191212BC
:1037F3008F7408120CD07403F09004C01208551291
:1038030038521208559004D3E0F97404120A70EE8A
:10381300FAEFFB12230974041209DDE9F974DC6978
:10382300602374DD69601E74E469601974F3696070
:103833001474DE69600F74DF69600A74E8696005F7
:1038430074DB697007EEFAEFFB1224C5022FB9EEA1
:1038530012385722242BF582E43FF5832274031296
:1038630009DD02491674F212048C8A088B09750C5F
:1038730000750D00750AE7A2AFE433F50BC2AF90F4
:103883001AC8800312362F1238EC603512363E50B8
:10389300F312450D640170ECEE242FF582E43F1220
:1038A3003A9BE06870DE780C120A00EEFCEFFD7ABA
:1038B300C87B1A12112174021209DD901ACEE0148A
:1038C300F0E50BA2E092AFEE4F6013EEFAEFFB12BE
:1038D300232179F0EEFAEFFB1224C5750A00A90A39
:1038E300AA08AB091224C5800DE0FEA3E0FFEE4F4A
:1038F3002274021209DD7F0602075374F412048C4A
:1039030074F7120A90EAFEEBFF8E828F83A3E064C2
:10391300F370030239A88E828F83A3E064DF700300
:103923000239A88E828F83A3E064E860788E828F49
:1039330083A3E064DB606E122363E9F508705EEE37
:10394300240E12451060561239B21223ABEA4B60B3
:103953004C7408120CD01239BC1208557508FF7547
:1039630009FF7808120A008E828F83A3A3A3A3A35F
:10397300A3A3A3E0F97404120A70122309740412B6
:1039830009DDE9F50874F36508601274DF65086002
:103993000C74E86508600674DB6508700F8E828F0F
:1039A30083A3E508F0EEFAEFFB12236F022E5CEE21
:1039B300240FFAE43FFB790922740212619A74FF1F
:1039C300F0A31239C9221239CD22124C8CA3A3229F
:1039D30074F512048C8A088B097E008A828B83A378
:1039E300A3A3A3A3A3122E6640027EE88A828B833D
:1039F300A3A3A3A3A3A3A3A3A3A3E0C394104004DB
:103A03007EE880138A828B83A3A3A3A3A3A3A3A388
:103A1300A3A3E0640F600A901B2CE0540870027E9D
:103A2300E8EA240BF582E43509123A9BA3A3A3A386
:103A3300A3A3A3A3E0C398500CEA240B12352A6472
:103A43000F60027EE89004C4E0F47003A3E0F47016
:103A5300027EEC7A237B00121199901AAF1251ADBA
:103A6300901AAF124F306029850882850983A3A37A
:103A7300A982AA8389088A09750A0078081209FCB1
:103A83007C237D0012519A1210C774031209DD8042
:103A9300027E1AEEF902633BF583E0F88A828B8398
:103AA300A3A32274F512048CEAFEEBFF8E828F83AC
:103AB300A3A3A3A3A3A3A3A3E09004AB12607D904D
:103AC30004C61260639004A6126082901B50F0F942
:103AD300120E2D901B50E06018EE2404FAE43FFB15
:103AE3007950120E15EE2406FAE43FFB79E1120E2B
:103AF30015901B4F122E52600474018002740090C3
:103B03001AB11260691209FC7C0B7D007AB27B1A30
:103B13001210C774031209DDEE2418F508E43FF50B
:103B23000978081209FC7C0B7D007ABD7B1A0263BD
:103B33003374F712048CEAFEEBFF8E828F83A3E0CB
:103B4300700612519A1223698E828F83742C124845
:103B53007A1224D102491674F712048CEAFEEBFFA1
:103B6300901AAF124F30600D12519A901AAFE4F0D1
:103B7300A3F012119F8E828F83740812487A121950
:103B83009D02491674F612048C901B4FE06013904B
:103B93001AB1E0700D123BA812231BEA4B6003120B
:103BA30023FF025CDD9004A6E0FB9004C6E0FA90DC
:103BB30004ABE0F92274F412048C74E7120A90EA5D
:103BC300FEEBFF750B018E828F83A3A3A3A3A3A395
:103BD300A3E0A2E25068EE242BF582E43F1267FFD4
:103BE300123C76122327E970559080BBE064017084
:103BF30005750B008048123C7E1209FC7C0B7D008E
:103C03007411120A681210C774031209DD12250712
:103C1300E9FA740E120A60880889097808120A0002
:103C23007508307509007808120A00123852120814
:103C330055125973790112252574061209DD851869
:103C43008285198374101237C9120CD0AA82AB83F0
:103C530012128312385212599F740B120CD0124E47
:103C630088740D120CD0E50B1246ED12199D7419D0
:103C7300022E5EEE2413FAE43FFB22EE24081260C8
:103C83007122C082C083901B50E060031225790229
:103C9300465CC082C083901B47748EF0A3741AF0F5
:103CA300A37492F0A3741AF0A3749EF0A3741AF091
:103CB300901C837416F0A3742BF0901B3174FDF0E9
:103CC300A37422F0901AD37433F0A37423F0901AE0
:103CD300D57439F0A37423F0901B2CE044028001C7
:103CE300E4F002465CC082C083EAFCEBFD79030288
:103CF3004CF8C082C083EAFCEBFD7905024CF8C0A6
:103D030082C0837908025E6EC082C08374FE120A89
:103D130090901ADB74E7F0A37423F0901ADD74E13A
:103D2300F0A37423F0800D7AC87B1A121115124682
:103D3300E31224F5901AC8124F3070EB901ACA128E
:103D43004F30600F7ACA7B1A1211151246E3122400
:103D5300F580E9901AC8E4F0A3F0901ACE122E353C
:103D63007402800274111209DD02465C74F61204B7
:103D73008CE9FF74BC29F582E4342DF583E493FECA
:103D8300FA7B001210EBEA4B6011EA2E124E7E8A88
:103D9300828B83A3A3A3A3E4F0802C7A027B00127B
:103DA30010EBEA4B601D74D22FF582E4342DF583BA
:103DB300E4938A828B83F0A3741AF0901B27E0F9B3
:103DC3001210F77A007B00025CDDE9FC740629F827
:103DD300EAA2E0501EE875F00A84E5F0F960147475
:103DE3000A28C399F8E9C394054004740A28F874AF
:103DF3000B28F8ECC3941340047A1480027A06EA81
:103E03002879002409F85001097A0A7B0012033C3F
:103E1300E8F90209AAC082C083901B2CE054026017
:103E23000A1219A3E9600479018002790002465C51
:103E3300C082C083901B2CE054026016901ACEE01F
:103E4300700C124F2D600BE0C81243C1500479016E
:103E53008002790002465CC082C0839080B8E0F89B
:103E6300901AD0E0C39850051210EB80047A007BBF
:103E73000002465CC082C0831224F5790002465CCE
:103E830074F712048C74FE120A90851882851983C4
:103E9300EAF0A3EB123FF2A3A3A3A3A3E0600A14E7
:103EA300606024FE6069023F739004ABE0640F60BE
:103EB300181224CBE9701285188285198312519D3B
:103EC300901AD712448B12278E9004D3E0C0E0855A
:103ED3001882851983124C56D0E0123FF2741412E3
:103EE30061961268017ACA7B1A12110FA8A8C2AF91
:103EF300901AD0E0041251B379201224BF74020245
:103F03003862851882851983125DA3741580D08564
:103F13001882851983123FD5A3A3E06053851882C5
:103F2300851983E02402F8A3E03400F988828983A9
:103F33001265D4E0C0E0851882851983E0FCA3E014
:103F4300CC2406F582E43CF583D0E01259DF888265
:103F530089831251AD8518828519831242BD851854
:103F6300828519836013123FDA6005123FE24043F2
:103F7300AA18AB191224F58084123FDA60F2123FBB
:103F8300E2501C1243D1FA851882851983123FDC53
:103F9300F874F2124E79342DF583E4936A60148534
:103FA3001882851983123FDA640870C41243D164FE
:103FB3000870BD1243D114123FFA240AC0E08518D9
:103FC3008285198312448BD0E0123FFA04023EE249
:103FD300E0F8A3124CA322E0F8A3E01240012285EB
:103FE30018828519831259B0124002C3940A22120F
:103FF300400CF58388822212400C12400122C8240F
:1040030006F582E438F583E02212619AE0F8A3E032
:1040130022C082C083901ADF124F306008125DA461
:1040230012278E8002790002465C74F712048CEA30
:10403300FEEBFF122FF87401F0EE2430F582E43F1B
:10404300F58312570D122FD22432124510C0E0EE21
:104053002413F582E43FF583D0E0F0EE24331245D8
:1040630010C0E0EE2414F582E43FF583D0E0F0EED7
:10407300242CF582E43FF5831208551240A1EE2467
:104083002E124510F912251F74021209DDE9F508F5
:104093007007EEFAEFFB1223FFA908024916EE247C
:1040A30023FCE43FFD22C082C0831224CBE96004D9
:1040B30079208002790102465CC082C083EA124201
:1040C3009F124160D2E0023CE4C082C08312415A95
:1040D30064017011124165400C8A828B83A3E0F95D
:1040E3001224C5806FEA241012415DA2E650128AA1
:1040F300828B83A3E0F9901AD912448B12278E8006
:104103005312415A6401700D12416550088A828B23
:1041130083743080368A828B83A3E0641B8A828B0C
:1041230083700474228024A3E0700D12415AF87442
:10413300DD124E79342D800B12415AF874D2124E8F
:1041430079342DF583E4938A828B83F0901B27E0E7
:10415300F91210F702465CEA240DF582E43BF5837D
:10416300E022EA1242C93BF583E0A2E32274F7128C
:10417300048CE9FE124F2D7003024296EE60117417
:104183001B6E7013E0C8124299640570030242610A
:10419300125D93E402426574E96E70621242B57077
:1041A3000B1219A9E960051242CF606279EE120D74
:1041B30097901AD11242B2901AD1603B1242D29018
:1041C3001AD1700B1242B214F0120F4D0242961222
:1041D30042BDC2E71243DD1242996403700C1259C7
:1041E300A912429F124007D2E2F079ED120D971205
:1041F30042A512278E8075125D9674E9806474E17E
:104203006E703E1219A9E960551242CF70509004A6
:10421300CDE0C0E01259A92412F582E438F583D029
:10422300E0F09004BCE0C0E0901AD1123FD3123FFB
:10423300D3D0E0F09004BCE004F07901120F358094
:1042430052741C6E7018901AD112519D901AE1127B
:10425300448B12278E901AD1E4F0A3F08035125DBF
:1042630093EEF0901AD112519D1223ED1259A91217
:10427300597BE0548060109004D3E0F9120E519002
:1042830004D2E0F9120E45901AD1E4F0A3F07910AC
:104293001224BF024916240D124004222411F58270
:1042A300E422901AD11251A1901AD5125D9D22E0F9
:1042B300F8A3E0C8241212400422E0F8A3E0C812D5
:1042C30042C9124007222410F582E422901AD11227
:1042D30059B012597FE054042274F412048C750A05
:1042E30000750B00A2AFE433FFC2AF124F2D600382
:1042F30002439912448812278EE94410F8901AC891
:10430300800985080A85090B1243B41243C9700357
:1043130002439912351E586870E8780A120A00ACF5
:1043230008AD097AC87B1A12112174021209DD90B3
:104333001AD1E508F0A3E5091243DD1243C1405D3C
:10434300901ACFE014F0EFA2E092AF901AD1E024DC
:104353000EF8A3E03400F9880889098882F58312EE
:10436300519D901AD11243D7F91223B1E9901ACC77
:10437300F01243E5E05480901AD160261259AC2420
:1043830013124004F9120E511259A92414124004B5
:10439300F9120E458018EFA2E092AF8011901ACE69
:1043A30080A11242BDA2E1B3E433F9120F35022E0C
:1043B30061E50824FBF582E50934FFF58322241126
:1043C300124004A2E7221263D8E5084509228518A2
:1043D30082851983123220A3E022F0901AD1125958
:1043E300B022A3E4F08508828509832274F71204BE
:1043F3008CEAFEEBFF1224EFEE2410124510A2E329
:10440300400C12450D640170059080B680039080C6
:10441300B7E0F9EEFCEFFD7AC87B1A121127E960C9
:1044230046EEFAEFFB901ADB12448B12278EEE2432
:104433000E12451054047020A8A8C2AF901ACFE002
:1044430004125193FAE8A2E792AF12447AA3E0541C
:104453000170211223F9801CEEFAEFFB901AD3129C
:10446300448B12278E800D8E828F83A374F11248A2
:104473007A1223ED02491612447E22EE240EF582AF
:10448300E43FF58322901ADD125D9D22C082C08332
:104493001223F902465C74F712048CEAFEEBFF79EF
:1044A30000901B2CE05402700CEE24301245105483
:1044B30004600279E8901B2CE05460700CEE243009
:1044C3001245105402600279E88E828F83A3A3A35E
:1044D300A3E0F89080BCE0C398500279E8EE242E64
:1044E300124510700CEE242B124510700479F580E0
:1044F3000BE970051223DBE9F9E96007EEFAEFFB3C
:104503001224C502491634FFF509EE240DF582E4A1
:104513003FF583E022C082C0838A828B83740DF0CF
:1045230012199D02465CC082C0838A828B83E4F0A9
:10453300A3F0EA243012415D54049080B67012E077
:10454300F8901ACFE0C398401279F11224C50246BD
:104553005CE0F8901ACEE0C39850EE901B27E0F988
:104563001210F780E974F612048CE9FE244CFAE485
:104573003400FB1210EBEA4B6012EE8A828B83A3AA
:10458300A3A3A3F0EA244C124E7E80047A007B009E
:10459300025CDDC082C083901AE37447F0A37424E5
:1045A300F0A37477F0A37424F0A3744DF0A37424E0
:1045B300F0A37453F0A37424F0A37471F0A37424D0
:1045C300F0A37465F0A37424F0A3745FF0A37424C0
:1045D300F0A3747DF0A37424F0A37483F0A3742474
:1045E300F0A37489F0A37424F0A37495F0A3742446
:1045F300F0A37459F0A37424F0A37441F0A37424BA
:10460300F0A3743BF0A37424F0901AFF746BF0A32F
:104613007424F0A3748FF0A37424F0A374AFF0A3F5
:104623007425F0A3749BF0A37424F0A374A1F0A3E6
:104633007424F0901B23E4F0901B26F0901B0F12C0
:1046430046537402F0901B181246537401023CE463
:1046530074BFF0A37424F0A322D083D0820209AAEA
:1046630074F512048C74F1120A90851882851983EB
:104673007402F07401120CD0E9F060047AFF7BFF3E
:104683007402120CD01251AD75081B75091B750A03
:104693000078081209FC7C0B7D007407120CD0AA69
:1046A30082AB831210C774031209DDAA18AB191267
:1046B300199D740F02633874F712048C74FD120A87
:1046C30090851882851983740AF07401120CD0E95D
:1046D300F07402120CD0EA1246ED12199D023860F2
:1046E300851882851983EAF0A3EBF0AA18AB192287
:1046F30074F612048C74F7120A90EAFEEBFF124769
:1047030043122FF0740212486BAA18AB19121283CA
:10471300EE242E122FBE243012577A120A0074028E
:10472300120A7079831A1AEFFB12251F74021209F9
:10473300DDE9F5087007EEFAEFFB1223FF025CD602
:1047430012447E74012274F012048C126221120C42
:10475300617808790C12039D78081209F87A127BA4
:104763001B02324374F412048C74C6120A90900430
:10477300ABE0640F6010851882851983742E12468E
:10478300ED1224D180277A097B1B1225F7122E6F95
:1047930012034488088909E4F50AF50B780812091D
:1047A300F87A097B1B1225EB74041209DD743A02B3
:1047B3002E5E74F512048CEAFEEBFF8E828F83A3C8
:1047C300E0F86003024854EE242D124510640260A1
:1047D30007E06403600278E8EE2423F582E43FF502
:1047E30083122E68400478E8806AE87064EE24231C
:1047F300FAE43FFB79E1120E15EE242EFAE43FFBB7
:104803007950120E15EE242D1245106402700E120B
:10481300596912599F9004BA124E8880129004BAB3
:1048230074FEF0A30412486B7AB17B0412128FEE6C
:104833002418123C811209FC7C0B7D007A1B7B1B24
:104843001210C774031209DDEEFAEFFB122435E9E7
:10485300F8E86011E88E828F83A3125BCB74171282
:10486300487A1224D102633BF0EE2425FCE43FFD99
:10487300228E828F837429F0EEFAEFFB2274F612F4
:10488300048C74F7120A90901B26E0703B7401F0BD
:10489300F9120EFFAA18AB1912250175081B750929
:1048A3001B7808120A007508017509007808120AB6
:1048B300009004C01208557406120A707A03790531
:1048C30012252574061209DD025CD874F712048CD4
:1048D300EAFEEBFF7901120F058E828F83E06420DD
:1048E3007004A374EBF0901B26E0A2E25003C2E233
:1048F300F0E0A2E15008124B1812242F800C8E8294
:104903008F83742A12487A1224D18007EEFAEFFBC0
:1049130012256D7F0102075374F412048C74FE1286
:104923000A90EAFEEBFF7901120F057A097B1B124D
:1049330025F77A127B1B1225F7124C6285188285A4
:104943001983124C96E0F50B700FAA18AB19795323
:10495300120E151263C8120E15123C7E1209FC7C4E
:104963000B7D007A1B7B1B1210C774031209DD85B4
:10497300188285198312519DA90B122429901B2695
:10498300E0A2E1500C7A008E828F83A3E0F9122417
:104993002F901B26E4F07402022E5E74F712048C2F
:1049A300EAFEEBFF8E828F83A374EBF0901B26E06D
:1049B300A2E150077A0079EB12242FEEFAEFFB12F3
:1049C300246502491674F712048CEAFEEBFF7901A1
:1049D300120F057A097B1B1225F77A127B1B12250E
:1049E300F7901B23E4F0901B26F07AFF7BFF8E8267
:1049F3008F83A3E0F912242902491674F712048C59
:104A0300EAFEEBFF12245F02490F74F712048CEAEB
:104A1300FEEBFF7901120F058E828F83A3A3A3A35D
:104A2300E060047400800274EB124A5F5003C2E238
:104A3300F0E0A2E15008124B6112242F8014A2E08F
:104A430050108E828F83742AF0A374EB12487A126B
:104A530024D1EEFAEFFB1224110249168E828F83C2
:104A6300A3F0901B26E0A2E22274F612048CEAFE65
:104A7300EBFF901B26E0D2E1F07901120EFF8E824C
:104A83008F83A3E0703C122507E9FAEE240DF508A5
:104A9300E43FF5097808120A0075080175090078E2
:104AA30008120A00124AD6120855EE2402FCE43F0B
:104AB300FD790512252574061209DDE98E828F839F
:104AC300A3F08E828F83A3E060067A00F912242F6D
:104AD300025CDD124ADA22EE240BF582E43FF58311
:104AE3002274F712048CEAFEEBFF7901120F058E94
:104AF300828F83E064207004A374EBF0901B26E0A4
:104B0300A2E25003C2E2F0E0A2E15006124B1812F7
:104B1300242F024916C2E1F07A008E828F83A3E02C
:104B2300F92274F712048CEAFEEBFF7901120F05E8
:104B33007A097B1B1225F78E828F83A3A3A3A3E09D
:104B430060047400800274EB124A5F5003C2E2F007
:104B5300E0A2E15006124B6112242F024A55C2E132
:104B63001239C9A3E0A2E4E433FA8E828F83A3E06F
:104B7300F92274F712048CEAFEEBFF7901120F0598
:104B83008E828F83A374EB124A645003C2E2F0E077
:104B9300A2E15006124B1812242F02491674F71281
:104BA300048CEAFEEBFF7A097B1B1225F7EEFAEF82
:104BB300FB12248902490F74F712048CEAFEEBFFFF
:104BC3007A097B1B1225F7EEFAEFFB1224890249BF
:104BD3001674F712048C74EF120A90EAFEEBFF12BC
:104BE30059737AB17B0412127DE96062851882855C
:104BF30019837409F07401120CD074EFF0124C6233
:104C0300F87402120CD0E8124C96A3A3E0C0E0742F
:104C130004120CD0D0E0124C83640870158E828F7E
:104C230083A3A3124C56E0C0E07405120CD0D0E06D
:104C330080067405120CD0E41259D27406120CD0FB
:104C4300AA82AB83122537AA18AB1912199D7411C6
:104C53000238621259B02407F582E438F583221230
:104C63004C78FB8A828B831259A388828983E0FC68
:104C7300A3E0F9EC22EE2402F8E43FF9E8FAE92292
:104C8300124C8722124C8CE022F08E828F83A3A3D6
:104C9300A3A322F0A3E91259C1124CA022E0F8A366
:104CA300125DA4A3A322C082C08312257902465CAD
:104CB300C082C083901B4374E3F0A3741AF0A374FF
:104CC300FFF0A3741AF0901C7D7452F0A3742AF0C1
:104CD300A374F0F0A37429F0901B2F7423F0A37432
:104CE30024F0901B2CE04401023CE4C082C083EA20
:104CF300FCEBFD79021224DD02465CC082C083799D
:104D030006025E6E74F612048C74FE120A90901BF7
:104D130028124F3060077A287B1B1224F5901B2E34
:104D2300E4F09017A8124F3060268007AA18AB1939
:104D33001224F5901B27E0F91211038A088B09A8A6
:104D430008A909851882851983124E88E84970DC01
:104D53007402025CDA74F712048CE9FA7B00901B8C
:104D630027E0F912112D02491674F712048C74F01E
:104D7300120A90EAFCEBFDE9FE8C828D83E0F87465
:104D8300E8124E79342DF583E493C0E07401120CDC
:104D9300D0D0E0F0640B700DEE8C828D83A3F01203
:104DA300255B024E6CE07003024E6C640C600302E0
:104DB3004E5D741A6E700B7404120CD0E4F0A302EF
:104DC3004E5C7404120CD0ECF0A3EDF0EC242F1223
:104DD3004E71C0E07403120CD0D0E0125F34120C99
:104DE300897406120CD0120C7D8C828D8312599615
:104DF300740A120CD0124E88EC240E124E71541009
:104E03006009851882851983E48013EC2412124EFD
:104E130071F89004CDE0C398851882851983F0E07A
:104E2300C0E0740C120CD0D0E0F0EC2415124E71DB
:104E3300C0E0740D120CD0D0E0F0EC2416124E71C9
:104E4300C0E0740E120CD0D0E0F0EC2417124E71B7
:104E5300C0E0740F120CD0D0E0F07402120CD0EE4C
:104E6300F07401120A6812199D7410023862F582F7
:104E7300E43DF583E02228F582E422F8E43BF98A55
:104E8300828B83A3A3E8F0A3E9F022C082C08390BE
:104E93001B2EE06403700479018002790002465CF2
:104EA30074F712048C901B2EE0124F1A1267FF8ABC
:104EB300828B83E0C2E7F025E0F8EC124E793DF5F2
:104EC30083A3E493FE124F1AF583124F306005EE6D
:104ED300901B2EF08A828B83E0124F26EC28F582FA
:104EE300ED39F583E493FCC4540F25E0F8743D12C7
:104EF3004E79341BF583124F307005122549801407
:104F0300EC540F25E0FCE82CF582E439F5831244D8
:104F13008B12278E024916124F26747B28F5827452
:104F23001C392225E0F8E433F922901AD11259A34F
:104F3300E8492274F112048C74FE120A90890AEA79
:104F4300FEEBFF125032FA7B001210EB8A088B093A
:104F5300EA450960388A828B83E50AF0A3E4F08E80
:104F63000C8F0DF50E780C1209FCA80A12503FEABB
:104F73002402FAE43509FB1210C774031209DDAAEF
:104F830008AB09901B27E0F91210F78012851882ED
:104F9300851983E50AF0791AAA18AB191224C57486
:104FA300021209DD0230CE74F212048C74FE120A6E
:104FB30090890B8A088B09125032F50AFA7B00128A
:104FC30010EB8A0C8B0DAE0CAF0DEE4F604A8E8248
:104FD3008F83E50BF0A3E4F0A80AEE28F8E43FF989
:104FE3008E828F83124E868E828F83A3A3A3A3E424
:104FF300F0F50A78081209FCA80B12503F1233E1AE
:105003001210C774031209DDEEFAEFFB901B27E0C1
:10501300F91210F779008014851882851983E50B3E
:10502300F0791AAA18AB191224C5791A0238F47444
:10503300B129F582E4342DF583E4932274C728F56E
:1050430082E4342DF583E493FC7D0022C082C08387
:10505300E9901B27023CE474F612048C74FE120AD6
:1050630090EAFEEBFFEE542070378040A8A8C2AF51
:10507300901AD0E014125193F508E8A2E792AF8A90
:10508300828B8312518A901B2A1251AD1224D1852F
:105093001882851983E0641560077A2A7B1B122422
:1050A300F57ACA7B1A121115EA4B70C0EF5480705F
:1050B30012801C901B2A1251AD1224D17A2A7B1B19
:1050C3001224F5901B27E0F9121103EA4B70E4EE6A
:1050D3005410600E851882851983742D1246ED12C3
:1050E30024D1EEA2E0500E85188285198374241210
:1050F30046ED1224D1EE5402600E85188285198381
:1051030074251246ED1224D1EE5404600E851882E4
:1051130085198374261246ED1224D1EE5408600ECD
:1051230085188285198374281246ED1224D1EE5412
:105133004060107401120CD0126195742C1246ED6C
:105143001224D1EE548060107401120CD0126195B8
:10515300742F1246ED1224D1901B28124F30602079
:10516300A8A8C2AF901B2812519D901B28E4F0A35E
:105173001251B31251AC1224D17A2A7B1B1224F59B
:105183007A007B00024D53E0851882851983F02253
:10519300F0E8A2E7E43322901AAF1251A122E0FA19
:1051A300A3E0FB22A3A3A3A3A3A3EAF0A3EBF02210
:1051B300125193FEE8A2E792AF22C082C083901BF4
:1051C3002A12599FEA687002EB697007901B2AE460
:1051D300F0A3F002465C74F712048CEAFEEBFFEED8
:1051E3004F700312262DA2AFE433F508C2AF8E82AF
:1051F3008F83124F306028E824FBFAE934FFFB90D9
:105203001B2A126801E86C7002E96D7007901B2A73
:10521300E4F0A3F08E828F83E4F0A3F012119F02D7
:1052230036B3C082C083901B51743DF0A37425F044
:10523300A3744FF0A37425F0A37455F0A37425F061
:10524300A3740BF0A37424F0A3745BF0A37425F090
:10525300A37405F0A37424F0A37411F0A37424F0D1
:10526300901B5F748BF0A37425F0A37461F0A37497
:1052730025F0A37467F0A37425F0A37473F0A374EB
:1052830025F0A3746DF0A37425F0901B50023CE34A
:10529300C082C0839004BAE064FE7003A3E0F4709C
:1052A300097CB17D0412128380158A828B83A3A3A8
:1052B300A3A3A3A3A3A37402F0125415124E88024E
:1052C300465CC082C0839004C4C3E094FEA3E09410
:1052D300FF400479038002790202465CC082C083E6
:1052E3001254208C828D831253D5687039740268EE
:1052F300701C8A828B8312532EE06870298A828BFA
:1053030083A312532EA3E068701C7901801A7403DF
:10531300687013EC2405FC50010DEA2405FA5001D2
:105323000B1212898002790002465CA3A3A3A3A3F4
:10533300E0F88C828D83A3A3A3A3A32274F61204A3
:105343008C7E00740A120CD0E01253C9FF8A828B40
:1053530083A3A3A3A3A3A3A3A3E06F706474026FA7
:10536300704E8A828B83C082C08388828983A3A381
:10537300A3A3A3E0F50888828983A3A3A3A3A3A37C
:10538300E0FBAA08D083D082E06A7003A3E06B70CD
:105393003088828983A3A3A3E0FA88828983A3A3A5
:1053A300A3A3E0F9EA6C7002E96D70157E01801128
:1053B30074036F700CE82405FCE439FD121289E9CB
:1053C300FEEEF9025CDDF8A3E0F9888289831253CB
:1053D300D522A3E01313543F540322C082C0838A0F
:1053E300828B83A3A3A3A3A3A3A3A3E06402701448
:1053F300125415E0687003A3E06970047901800F0B
:105403007900800BEAFCEBFD7AB17B0412127D027A
:10541300465C9004BA1259A38A828B83228A828BB8
:10542300831253D5F82274EC12048CEAFEEBFF8C42
:10543300128D13750A008C828D83A3A3A3A3A3A348
:10544300A3A3E0F510E9A2E75008750CFF750DFF63
:1054530080069004C0125665E9C2E7F511EE240EEA
:1054630012451054206007125646740880041256E1
:1054730046E412566D5404600712564E748080053C
:1054830012564E741012566D5410600612561EE4D6
:10549300800B9004CDE0C0E012561ED0E012566D92
:1054A300A2E05003750A20540860067410450AF5FB
:1054B3000A8E828F83A3A3E024FFF508A3E012459D
:1054C30009C39402E0400B640B6005E0141233F14E
:1054D3007403450AF50A750B009004E0E06401705B
:1054E300118E828F83A3A3A3A3E0C39467400375A4
:1054F3000B1085110E750F00740E780E120B96E5C6
:105503000F450BF50B7414120CD0E0F50EA3E0F568
:105513000F74026511700E9004C51233F09004C429
:1055230012565C80137403651170121256287CD4D2
:105533007D04AA08FB12128F1256358004E5116010
:1055430028E5106014E50E650C7004E50F650D7019
:10555300087440450AF50A8010850882850983E5A9
:105563000D125673E50C1233F785100C750D00748C
:105573000A780C120B96E50D450BF50B74026510BA
:105583007015851282851383A31233F085128285E9
:10559300138312565C80137403651070121256281D
:1055A300AC12AD13AA08FB12128F1256358004E514
:1055B300106010850882850983E50F125673E50E86
:1055C3001233F7A808A909E824FFF508E9124509E9
:1055D30070059004B080039004BCE0FA04F0EA88FC
:1055E3008289831243E7E50B125673E50AF0EE2432
:1055F30004F8E43FF91230DDAC088A828B83E0F5CE
:105603000A88828983E0250AC39C1259BDECF0A362
:10561300E509125B39E4F0F9022E42EE2412F58219
:10562300E43FF58322E50824F9F508E50934FFF59D
:10563300092212563922E50824FFF508E50934FF4B
:10564300F50922EE1242C93FF5832212565222EE89
:105653002411F582E43FF58322E0850882850983DE
:10566300F022E0F50CA3E0F50D22F012447EE022D7
:105673001233FB850882F5832274EE12048C890AA7
:105683008A0B8C108D11750C1A7416120CD01263C0
:10569300D4AA08FB1223AB8A0E8B0FAE0EAF0FEE0C
:1056A3004F60607414120CD012570DE8F0A3E91286
:1056B3002FF3E50AF085080C85090D750E00780CAB
:1056C3001209FC1233DD1210C774031209DD7412C0
:1056D300120CD0120855AC10AD11A90BEEFAEFFB6A
:1056E30012251F74021209DDE9F50C7016E50A2470
:1056F300F96003147006123464D2E5F0EEFAEFFB9E
:105703001223FFA90C7F0A020753125DB212447FD2
:105713002274F612048C74F7120A90EAFEEBFF78F7
:1057230001EE242F1245106002780512447AE81224
:105733002FF0740412576D121283EE242C122FBE15
:10574300242E12577A120A007402120A7079031A6D
:105753001AEFFB12251F74021209DDE9F508700721
:10576300EEFAEFFB1223FF025CD6F0EE2423FCE4F7
:105773003FFDAA18AB1922F582E43FF583123108E5
:10578300124C8704F078082274F212048C8A088B76
:1057930009ECFEEDFF8A828B837405F0EE2432124E
:1057A30045108A828B83A3A3F0EA2403F50AE43528
:1057B30009F50B850A82F583125665125969120C95
:1057C30089E50C12429F350DF583120C7D12597336
:1057D300AA0CAB0D121283850A82850B83125DAA74
:1057E300FAA3E0FB88828983A3A3A31251A7EE2423
:1057F3002F124510C0E0125988D0E01259C7241562
:10580300F582E438F583E41259C712597BE412593F
:10581300D2850A82850B83E02416FAA3E03400FBC9
:105823001225378E828F83A3A3A3A3A3A3A3E0C0D0
:10583300E0850A82850B831259AC240DF582E43886
:10584300F583D0E01259B6FAA3E0FB850A82850BF3
:105853008312599FE8240BFCE439FD8A828B83E091
:105863008C828D83F0A3E41259DFE0F50B8C828DDB
:1058730083A3E0450B1259BDA3E0FCA30A0AAB8343
:10588300A2E7E433C0E0E8240FF582E439F583D0DE
:10589300E0F074075C600478018002780075F0031F
:1058A30074075CA428F8EA28FAE43BFBE50824051E
:1058B300F8E43509F98A828B831231081259DF859E
:1058C30008828509831251A788828983E0F50A54E7
:1058D3000725E0FCE50AC4540F5407F50A750B00CD
:1058E3007403780A120B96EC250AF8EA28F8E43BCD
:1058F300F9850882850983A3A3A3A3A3A3A3A3A3D1
:10590300E8F0A3E9124C83FA8E828F83A3A3E02AE3
:10591300FAA3E03400FBC3EA98EB9940308E828F00
:1059230083A3A3E0F8850882850983A3A3A3A3A384
:10593300A3A3A3A3E0FA8E828F83A3A3A3A3E0C3AD
:105943009A28850882850983A3A3A38010850882EA
:10595300850983A3A3A3A3A3A3A31243E5A3A3A39B
:10596300A3A3F00238F9EE2425F582E43FF5832260
:10597300EE2413FCE43FFD2212597F22240EF5820C
:10598300E438F5832212598C22E82410F582E43995
:10599300F58322A3A3A3A3A3A3A3A3A31259A3227F
:1059A300E0F8A3E0F922901AD11259B022E0F8A34B
:1059B300E0C822125BCBA3A3E0221259C122F08AD2
:1059C300828B8322F0850A82850B831259B022F0E1
:1059D3001259D722EE2408FCE43FFD221259C1A339
:1059E300AA82AB832274F512048C8C088D09750A84
:1059F3000078081209FC7C0B7D000263330209AABC
:105A0300C082C08379181224C502465CC082C08359
:105A13008A828B83E0C3940B500312254302465CB6
:105A2300C082C083791980DE74F712048CEAFEEB1E
:105A3300FF901B28124F306010901B2812519D12AB
:105A4300254F7A287B1B1224F5EEFAEFFB1224EF85
:105A5300901B28EEF0A3EF8002F0A3F00249167426
:105A6300F712048C74DE120A90EAFEEBFF8E828F2B
:105A730083E024FD601124FE601524ED600924FAFF
:105A8300600D14600A803D7416120CD0E480077414
:105A930016120CD07401F01240A1740B120CD0AA90
:105AA30082AB8312128F7413120CD0125B3E120C52
:105AB300D0124E88740A120CD0125B4A120CD01208
:105AC3004E8880427416120CD07402F0125973740B
:105AD3000B120CD0AA82AB8312128F7413120CD048
:105AE300125B3E120CD0124E88740A120CD0125B59
:105AF3004A120CD0122FD21259D87417120CD0AAF2
:105B030082AB83122537851882851983740B125B48
:105B130039E0C0E07401120CD0D0E01259D27417EE
:105B2300120CD0AA82AB83122537AA18AB1912190B
:105B33009D7422023862125BCBA3227403F090049B
